:020000040800F2
:100000009024002045010008A30E0008BD0500084B
:10001000A10E00082F0200080517000800000000CC
:10002000000000000000000000000000A91400080B
:10003000A702000800000000090F0008AB14000828
:100040005F0100085F0100085F0100085F01000810
:100050005F0100085F010008AD0300085F010008B0
:100060005F0100085F0100085F0100085F010008F0
:100070005F0100085F0100085F0100085F010008E0
:100080005F0100085F0100085F0100085F010008D0
:100090005F0100085F0100085F0100085F010008C0
:1000A0005F0100085F0100085F0100085F010008B0
:1000B0005F0100085F0100085F0100085F010008A0
:1000C0005F0100085F0100085F0100085F01000890
:1000D0005F010008A11500085F0100085F0100082A
:1000E000E10300085F0100085F0100085F010008EC
:1000F0005F0100085F0100085F0100085F01000860
:100100005F0100085F0100085F0100085F0100084F
:100110005F0100085F0100085F0100085F0100083F
:100120005F0100085F0100085F0100085F0100082F
:10013000DFF80CD000F04AF8004800475D200008C6
:10014000902400200648804706480047FEE7FEE767
:10015000FEE7FEE7FEE7FEE7FEE7FEE7FEE7FEE777
:10016000B1140008310100082DE9F05F05460020B8
:1001700092469B4688460646814640241BE0284618
:1001800041464746224600F042F853465A46C01AB6
:10019000914110D311461846224600F029F82D1A35
:1001A00067EB01084F4622460120002100F020F8AD
:1001B00017EB00094E41201EA4F10104DFDC484684
:1001C00031462A464346BDE8F09F0000064C074DE5
:1001D00006E0E06840F0010394E807009847103417
:1001E000AC42F6D3FFF7A8FF582400087824000893
:1001F000202A04DB203A00FA02F1002070479140E7
:10020000C2F1200320FA03F3194390407047202ADB
:1002100004DB203A21FA02F00021704721FA02F3B0
:10022000D040C2F120029140084319467047FEE7D2
:1002300010B502684FF6FE73002942F0010408BFB2
:1002400002EA0304046010BD044A010F61F38A222C
:100250001168084018BF0120704700BF000002402D
:100260002DE9F043026847F6F073D1E90258D1E96D
:100270000479D1E90646D1E900CE9A432A43D1E96F
:100280000853896A2A433A4342EA09022243324325
:100290001A4311430160C0F80480C0F808C0C0F8D8
:1002A0000CE0BDE8F08370477CB5082001210124F3
:1002B00000F044FE0E48574D01AE314601902846ED
:1002C00000F014F90B4831460190284600F00EF971
:1002D00000F0BCFCA02000F059FB00F0F9FC054642
:1002E00000F0CAFC15B100F0C7FC002420467CBD1C
:1002F00040000314800003142DE9F84F15460E4604
:10030000834600240FF268080FF278090FF2880A7A
:10031000AC421FD0A4B900F0AFFC0027632F1ED859
:1003200000F094FCA02000F031FB013700F0D0FC7D
:100330000028F3D1F0B200F029FB00F0C9FC68B945
:100340001BF8040000F022FB00F0C2FC20B90134CD
:100350000136DDE7012406E0D04600E0C84640460D
:1003600002F026F8002400F087FC2046BDE8F88F54
:10037000454550524F4D20B4EDCEF3203420210D91
:1003800000000000454550524F4D20B4EDCEF32003
:100390003520210D00000000454550524F4D20B43E
:1003A000EDCEF3203720210D0000000010B5012014
:1003B00000F038F860B1094C0121204600F0F0F857
:1003C000012805D104F580602021032201F026FCDC
:1003D0000120BDE8104000F01FB800BF0008014038
:1003E00010B54FF4005000F01DF860B1094C4FF407
:1003F000005104F5806000F0D3F820B92046202198
:10040000032201F00BFC4FF40050BDE8104000F057
:1004100003B800BF000C014001490860704700BFED
:10042000140401401C490A68024018BF01224969AE
:10043000084018BF01201040704700BF10B58279F6
:100440001549E2B102680B6893430B604B68934314
:100450004B6003790B431C6822431A6002688B6867
:1004600093438B60CB689343CB60407910280ED1C7
:10047000886810438860C8681043C86010BD02795E
:10048000006811430A6822EA0000086010BD0843B2
:1004900001681143016010BD0004014008490A6869
:1004A00022F010020A600A6810430860704700BF1B
:1004B00003490A6802F0380210430860704700BF21
:1004C00000200240B0B50C22074C0F2302EA810243
:1004D00001F0FC010D599340904025EA03030B51B4
:1004E0000A5910430851B0BD080001402DE9F043FE
:1004F00091F8039009F00F085FEAC96344BF8B7855
:1005000048EA030809880B0621D0046800254FF04B
:10051000010E4FF00F0C0027082F17D00EFA07F32B
:100520000B4210D00CFA05F208FA05F6B9F1480FA3
:1005300024EA020242EA060404D0B9F1280F08BFF7
:10054000436100E0036104350137E5E70460B1F57C
:10055000807F23D3446800254FF4807E4FF00F0C3A
:100560000027082F19D00EFA07F606EA0102B24258
:1005700010D10CFA05F308FA05F2B9F1480F24EA94
:10058000030343EA020404D0B9F1280F08BF46610F
:1005900000E0066104350137E3E74460BDE8F0831D
:1005A0008068084018BF01207047C068084018BF25
:1005B000012070474161704701617047FEE7028882
:1005C000002942F4806308BF22F4806303807047EF
:1005D000828A008B60F3174202EA0100401AB0FAE7
:1005E00080F040097047C943818270470288002922
:1005F00042F0010308BF22F00103038070470000AE
:100600001CB5CC4C0020ADF806002046012100F0BE
:100610001DF82046142100F0A3F8ADF8060020468E
:10062000A021002200F0A9F92046142100F098F83A
:100630008007EAD504492046FFF7D5FF204601216F
:10064000BDE81C4000F00BB800040010028800292F
:1006500042F4807308BF22F48073038070470288DD
:10066000002942F4007308BF22F40073038070472E
:1006700082B00022019200920090080F019021F0B8
:100680007F4001990029009903BF18310091000CA7
:10069000143118BF009100990968084018BF012063
:1006A00002B0704770B586B00446868801A80D4632
:1006B00000F06EFC2748039926F03F02264BB1FB61
:1006C000F0F00243A280228822F0010222802A68F0
:1006D0009A4208D85200B1FBF2F14FF6FC72114277
:1006E00008BF04211FE0EB884BF6FF76B34204D12C
:1006F00002EB4202B1FBF2F105E019235A43B1FBD0
:10070000F2F141F480414FF4967250434FF47A7203
:10071000B0FBF2F00A466FF31F32B2FA82F25209CE
:1007200011430E4A114301302084A1834FF6F53165
:10073000208840F00100208020880840A9880843D4
:10074000698908432080A88929890843208106B047
:1007500070BD00BF40420F00A08601000080FFFF77
:1007600081B0002200920090009808440090009808
:10077000008801B0704700002DE9F84F824668A05C
:100780001446884601F014FE694F6A4E4FF440400B
:10079000388030464FF40031FFF76AFF30B13888B7
:1007A000411E00283980F4D1092092E03046012111
:1007B000FFF74CFF604D4FF4C0403880304629466B
:1007C000FFF706FF30B93888411E00283980F5D17F
:1007D0000A207EE03046A0210022A94600F0CDF894
:1007E000564D4FF4C040388030462946FFF7F0FEA2
:1007F00030B93888411E00283980F5D10B2068E0D7
:1008000030460121FFF7F2FE3046414600F0E8F89D
:100810004FF4C04005F102084D463880304641464D
:10082000FFF7D6FE30B93888411E00283980F5D14F
:100830000C204EE030460121FFF708FF4FF4C04086
:10084000388030462946FFF7C3FE30B93888411E4C
:1008500000283980F5D10D203BE03046A02101224F
:1008600000F08BF84FF4C04005F1010838803046A5
:100870004146FFF7ADFE30B93888411E0028398067
:10088000F5D10E2025E005F13F084FF440495546CB
:10089000A3461FFA8BF0012801D020B936E030467C
:1008A0000021FFF78CFEA7F8009030464146FFF785
:1008B0008FFE28B93888411E00283980F5D107E01D
:1008C000304600F057F805F8010BABF1010BE0E7FB
:1008D000032000F0DFF91AA001F06AFD1D4E1E4F43
:1008E0000025AC420DD01AF80510304601F0E0FBAF
:1008F00005F00F000F2802D1384601F0D9FB013571
:10090000EFE716A0BDE8F84F01F052BD30460121D7
:10091000FFF7A5FE30460121FFF751FEDBE700BFE0
:100920004932435FCAFDBEDDBCECB2E220000000EC
:100930003400002000540040010003008200070042
:100940000A4932435FCAFDBEDDB6C1C8A1CDEAB1D6
:10095000CF20000053240008382400080A2D2D2D34
:100960003E4932435FCAFDBEDDBCECB2E2CDEAB324
:10097000C9000000008AC0B2704741F00103002A9C
:1009800008BF01F0FE030382704700002DE9F84321
:10099000BF4DDB4F044600264FF080084FF0400962
:1009A000072E18D860B20121B0F1FF3F4FF032009E
:1009B000CCBFC5F80480C5F80080B84732200121BB
:1009C000C5F80090B84732200121C5F80490B84717
:1009D00001366400E4E780202860BDE8F88300BFAA
:1009E0000182704780B5FFF75FFC00B180BD86488B
:1009F000BDE8804001F0DCBC2DE9FE4F91460E467B
:100A0000834600F023F9A020FFF7C0FF00F060F953
:100A100008B143A010E03046FFF7B8FF00F058F9E6
:100A200008B144A008E000F011F9A120FFF7AEFFE3
:100A300000F04EF950B144A001F0BAFC00F01CF9EE
:100A400045A001F0B5FC0120BDE8FE8F464EA9F19E
:100A5000010000274025CDF8049002904F4544D076
:100A60004FF0000A4FF00008BAF1070F13D83220F8
:100A70000121356001F010FA56F8089C322001215E
:100A8000756001F009FA5FFA89F00AF1010AC009FC
:100A900040EA4808E8E702980BF80780B8420ED110
:100AA0008020324C012130603220A04732200121C9
:100AB0003560A047322001217560A04711E02B4C22
:100AC0004FF0800932200121C6F80490A04732205F
:100AD00001213560A047322001217560A047C6F88A
:100AE0000090DDF804900137B8E700F0C5F820A0C9
:100AF00001F05EFC22A001F05BFC524E524F00243C
:100B0000A145A0D01BF80410304601F0D1FA04F042
:100B10000F000F2802D1384601F04AFC0134EFE7FC
:100B2000454550524F4D20B4EDCEF3203120210DDC
:100B300000000000454550524F4D20B4EDCEF3204B
:100B40003220210D00000000454550524F4D20B489
:100B5000EDCEF33320210D00B6C1454550524F4D27
:100B6000B4EDCEF3210D0000100C0140991E0008D9
:100B70000AB6C1454550524F4DB3C9B9A6210D0023
:100B8000454550524F4DB6C1C8A1CAFDBEDDCAFD94
:100B9000BEDDBCECB2E9200D000000002DE9F04103
:100BA00014460E460546FFF77FFB28B3284631461C
:100BB0002246FFF7A1FB08B318A001F0F9FB96202D
:100BC000012101F069F919A001F0F2FB1D4EDFF8D7
:100BD00078800027BC420CD0E95D304601F068FA0D
:100BE00007F00F000F2802D1404601F0E1FB01376A
:100BF000F0E70020BDE8F081034800E003A001F029
:100C0000D7FB0120BDE8F0813B240008D0B4454566
:100C100050524F4DB4EDCEF3210D0000D0B44545F8
:100C200050524F4DB3C9B9A6210D00004545505251
:100C30004F4DD0B4C8EBCAFDBEDDBCECB2E9BCEC94
:100C4000B2E90D005224000850240008F8B5104CF9
:100C50002B4F402580263220012125602660B84791
:100C6000322001216660B8476560322001213A4692
:100C7000BDE8F840104700BFB0B5054C80254020C6
:100C8000012165602060322001F006F92560B0BDC9
:100C9000100C014010B50446044805A101F089F983
:100CA0000AA02146BDE8104001F002BA0038014018
:100CB00049324320B5C8B4FDB3ACCAB121657272E4
:100CC0006F72436F6465203D0000000025640A00D8
:100CD000F8B50A4C80200A4D0121A0603220A847B7
:100CE000402632200121A660A84727683220012132
:100CF000E660A847C7F3C010F8BD00BF080C01406C
:100D0000991E00082DE9F84F054656A0144688465E
:100D100001F04EFBFFF774FC564E574F4FF4404026
:100D2000308038460121FFF7A3FC30B13088411EE6
:100D300000283180F5D104205DE038460121BB4612
:100D4000FFF784FC4D4F4FF4404030805846394601
:100D5000FFF73EFC30B93088411E00283180F5D1C4
:100D6000052048E05846A0210022FFF706FE4FF478
:100D70004040308042488146871C58463946FFF73C
:100D800027FC30B93088411E00283180F5D106207B
:100D900031E0584641465F46FFF722FE4FF440409F
:100DA000308038464946FFF713FC30B93088411E81
:100DB00000283180F5D107201DE009F104074FF428
:100DC000C048A946A2465FEA0A4045D019F8011B6F
:100DD0005846AAF1010AFFF703FEA6F8008058461C
:100DE0003946FFF7F5FB0028EDD13088411E002879
:100DF0003180F4D10820FFF74DFF274EDFF89C80AB
:100E00000027B8B2A0420DD215F8011B304601F000
:100E10004FF907F00F000F2802D1404601F048F9C2
:100E20000137EEE717A001F0C3FAFFF7E9FB1A4E0E
:100E3000DFF868800027BC4208BFBDE8F88FE95D95
:100E4000304601F035F907F00F000F2802D1404677
:100E500001F02EF90137EEE758460121FFF7FFFBBD
:100E6000CBE700BF4932435FD0B4C8EBCAFDBEDD5B
:100E70002000000034000020005400400100030066
:100E8000800007000A4932435FD0B4C8EBCAFDBEF8
:100E9000DDCDEAB3C920000053240008382400083F
:100EA000FEE7704770B5C2781149A2B1154A072311
:100EB000126845788678047823EA12220F23D340FB
:100EC000C2F10402334005FA02F21A430B1912016F
:100ED00083F8002300E080310078012300F01F0236
:100EE000C0F3421003FA02F241F8202070BD00BFA7
:100EF00000E100E00249084302490860704700BF72
:100F00000000FA050CED00E070470000044A0029DB
:100F100011680CBF21EA000008431060704700BF51
:100F200014100240044A002911680CBF21EA000095
:100F300008431060704700BF1C100240044A00299B
:100F400011680CBF21EA000008431060704700BF21
:100F50001810024064480C4A016841F00101016028
:100F600041681140094A416001681140016001680F
:100F700021F480210160416821F4FE0141604FF4B9
:100F80001F018160704700BF0000FFF8FFFFF6FE01
:100F900010B54A490A6802F00C03164A082B0BD117
:100FA0000B68C3F383430C680233E40302D50C6877
:100FB000A40300D5104A5A430260104C0B68C3F3D7
:100FC0000313E35CDA4042600B68C3F30223E35C83
:100FD00022FA03F383600B68C3F3C223E35CDA40B5
:100FE000074BC2600968C1F38131595CB2FBF1F172
:100FF000016110BD00127A0000093D00D8230008ED
:10100000D423000801223849B2EB501F04D0420912
:10101000022A14BF24312031096800F01F0021FA90
:1010200000F000F0010070472448006800F00C0058
:10103000704700BF21490A6822F0F002104308609F
:10104000704700BF2849B0F5803F0A6822F480321B
:101050000A600A6822F480220A6004D0B0F5802F6A
:1010600004D14FF4A0200A6810430860704700BF05
:1010700012490A6822F4E06210430860704700BF1A
:101080000E490A6822F4605242EAC00008607047C4
:1010900001490860704700BF6000424208430749A9
:1010A0000A6822F47C1210430860704703490A68FA
:1010B00022F0030210430860704700BF0410024092
:1010C00081B00020009008480168009A013289032D
:1010D0000092009902D4B1F5A06FF5D10068C0F379
:1010E000404001B0704700BF00100240F8B54AB35D
:1010F0000646C8B214460D46C0F5807797421AD20C
:10110000304629463A4600F081F9E01B00213E4472
:101110003D44C4B2B1EB102F0DD0070A5FB1304689
:1011200029464FF4807200F071F906F5807605F5D6
:101130008075013FF2E7304629462246BDE8F84077
:1011400000F064B902A0BDE8F84001F031B900BF79
:101150005350495F464C4153485F50616765577231
:1011600069746520746F6F20736D616C6C21000071
:101170000288002942F0400308BF22F040030380A8
:1011800070470000F8B5044600F082F9C54DB74F2E
:10119000102620206E60B847C4F30740B847C4F358
:1011A0000720B847E0B2B8472E60BDE8F84000F02D
:1011B0001DB900BFF0B585B04FF480500121012664
:1011C000FFF7BCFE04200121FFF7B8FE19481A4CB6
:1011D0006D461A4F294600902046B84718482946C0
:1011E00000902046B8471748294600902046B84747
:1011F0001548294600902046B847102069462061CE
:101200004FF4007004F52054ADF80860CDF80A00E2
:101210004FF4003001900020CDF80E004FF08270A6
:101220000090204600F051F820460121FFF7A0FF72
:1012300005B0F0BD2000031800080140ED040008CF
:1012400040000304800003181000031070B5184E0E
:10125000184C05464FF4C04030602046022100F093
:101260002BF848B93068411E00283160F5D10020C4
:10127000002400F09FF819E02046294600F023F8EA
:101280004FF4C04030602046012100F015F848B905
:101290003068411E00283160F5D1012000F08AF845
:1012A000002403E0204600F00CF80446E0B270BDD4
:1012B00004000020003001400089084018BF0120D0
:1012C000704780897047818170470A88038803F4DA
:1012D00041531A434B881A438B881A43CB881A43CD
:1012E0000B891A434B891A438B891A43CB891A43BA
:1012F0000280828B22F400628283098A0182704715
:101300002DE9F0410E46674905461020574F144617
:10131000486003208846B847C6F30740B847C6F37D
:101320000720B847F0B2B847200406D00020FFF7E6
:101330008DFF05F8010B013CF6E71020C8F800000E
:10134000BDE8F0812DE9F04156481027474E47602F
:1013500080469F20B0470020B04704460020B04799
:1013600005460020B0472902C8F8007041EA044150
:101370000844BDE8F08100BF2DE9F0410C46054668
:1013800000260FF2240809A7B44208BFBDE8F08187
:10139000300602D1404600F08BFEA95D384600F0D1
:1013A00087FE0136F0E700BF0D0A2000307825786F
:1013B00020000000014601A000F07ABE3C3C2D4612
:1013C0004C4153482D4552524F522D3E3E205350D2
:1013D0004920B5C8B4FDB3ACCAB1216572726F7251
:1013E000436F6465203D2025640A000010B52D4C34
:1013F000102060600520FFF729FF0020FFF726FF7F
:10140000C007FAD11020206010BD00BF2DE9F041C7
:1014100015460E46044600F03BF813491020134FC2
:10142000486002208846B847C6F30740B847C6F36D
:101430000720B847F0B2B847B5F5805F0AD90CA0CD
:1014400000F0B6FF4FF4805504E014F8010BFFF7ED
:10145000FDFE013D2804F8D11020C8F80000BDE8C9
:10146000F041FFF7C3BF00BF100801404D12000854
:101470005350495F464C4153485F5061676557720E
:1014800069746520746F6F206C617267652100005C
:10149000B0B5044C102506206560FFF7D7FE256027
:1014A000B0BD00BF10080140704700F0E1BC000073
:1014B00082B03648364A016841F001010160416856
:1014C0001140344A4160016811400160016821F413
:1014D00080210160416821F4FE0141604FF41F0149
:1014E0008160002101910091016841F48031016027
:1014F000016801F4003100910199013101910099D5
:1015000019B90199B1F5A06FF2D10168890354BFEF
:101510000021012100910099012930D11E490A685A
:1015200042F010020A600A6822F003020A600A68A8
:1015300042F002020A6041684160416841604168CE
:1015400041F480614160416821F47C11416041684F
:1015500041F4E8114160016841F080710160016867
:101560008901FCD5416821F003014160416841F0E7
:1015700002014160416801F00C010829FAD10748D5
:101580004FF00061016002B0704700BF00100240E0
:101590000000FFF8FFFFF6FE0020024008ED00E02B
:1015A00010B5A54C40F22551204600F021F840B17D
:1015B000204600F09FF8C1B22046BDE8104000F080
:1015C0009DB810BD8289002942F4005308BF22F45F
:1015D000005383817047002A828A0CBF22EA0101EE
:1015E0001143818270470088084018BF012070476E
:1015F00001F01F02012303FA02F2C1F34213022B8E
:1016000006D0012B14BF00F1140300F10C0301E01C
:1016100000F110031B880088090AC84012EA030180
:1016200018BF01210840704710B501F01F030124C5
:1016300004FA03F3C1F342141421022C08BF102151
:10164000012C08BF0C21002A42580CBF9A431A43B0
:10165000425010BD70B586B004460D46C88801AE34
:10166000218A21F4405108434EF6F3112082A089CB
:101670000840A98808432989084369890843A0814B
:10168000A889A18A21F440710843A0823046FFF75F
:101690007FFC694906F1080002226FF063038C4267
:1016A00008BF06F10C00192100684843B4F90C107A
:1016B000002948BF0122296804259140B0FBF1F0C0
:1016C0006421B0FBF1F202FB0300B4F90C30002BF3
:1016D00048BF0325A8403230002BB0FBF1F04FF09B
:1016E0000F0148BF0721084040EA0210208106B0E0
:1016F00070BD00BF80886FF35F2070476FF35F217C
:1017000081807047FEE770B50D460446042630061A
:1017100006D0290E204600F060FC2D02013EF6E7BF
:1017200020464021FFF75FFF0028F9D170BD00007F
:1017300070B5414E0C460546200408BF70BD02CD71
:101740003046FFF7E0FF013CF6E700BF10B5130499
:1017500007D00B6804689C4205D1013A043104307B
:10176000F5E7012010BD002010BDF0B58BB00F468D
:101770000446012001211D461646FFF7C7FB4FF422
:10178000804069460A904FF400500990002008906C
:101790004FF4006007904FF4007006908020059091
:1017A0004020CDE90370109802902046CDE90065F5
:1017B000FEF756FD20460121FEF73AFD0BB0F0BDC5
:1017C0007CB5064612A014460D4600F0F1FD1848FF
:1017D00031462A462346C0E900641020009015488F
:1017E00000F0D0F8144C802101222046FFF7F3FED0
:1017F000FA20022100F050FB20468021FFF7F3FE83
:101800000028F9D00DA0BDE87C4000F0D1BD00BF9C
:101810000ABFAACABC20524F4DB5BD5553415254C0
:10182000B5C4B4ABCBCDB3F5CABCBBAF00000000B0
:101830002C00002044000240003801400D524F4D62
:10184000C4DAB4E6B5BD5553415254CDE2C9E8B54A
:10185000C4444D41B2D9D7F7CDEAB1CF0000000062
:101860007CB5064613A014460D4600F0A1FD0020ED
:1018700031462A46234600901648FFF776FF4FF47C
:101880000010FEF7E1FC0028F9D0144C1248142295
:101890002146FFF75BFF18A111A2002808BF1146DF
:1018A000084600F085FD20461421BDE87C40FFF786
:1018B0003FBF00BFBFAACABC20524F4DC4DAB4E636
:1018C000B5BD52414DC4DAB4E6B5C4444D41B2D9B8
:1018D000D7F720006C000240E823000840100020E9
:1018E000524F4DC4DAB4E6B5BD444D41B2D9D7F735
:1018F000D2ECB3A320000000524F4DC4DAB4E6B5D9
:10190000BD444D41B2D9D7F7D5FDB3A320000000A7
:101910007FB54FF400100121FFF704FB08200121DF
:10192000FFF70CFB124C11486E46314604F5384562
:1019300000902846FEF7DAFD0E4831460090284612
:10194000FEF7D4FD4FF480406946ADF80C000A481C
:1019500002900A4801900A4800902046FEF7A2FE35
:1019600020460121FEF742FE7FBD00BF4000031C60
:10197000005400408000031C5F0000040000FFBF13
:10198000801A0600F0B58BB00E46074601200121F3
:101990001C461546FFF7BAFA00204FF480510A9012
:1019A000CDE908014FF4006107914FF400710691F1
:1019B00080210591CDE90360109869460290384670
:1019C000CDE90054FEF74CFC38460121FEF730FC0F
:1019D0000BB0F0BD10B509A000F0EAFC0D4C0C49AD
:1019E00014202246FFF73CFF0B4914202246FFF744
:1019F000E7FE0AA0BDE8104000F0DABC0A202D2D59
:101A00002D3E20444D41BFAACABCD4CBD0D020002B
:101A1000E823000840100020043801402D2D2D3E01
:101A200020444D41D4CBD0D0CDEAB1CF200000002E
:101A3000BCB5012001210125FFF780FA02200D210C
:101A4000FEF740FD4FF400606C468DF8065000959F
:101A5000ADF804002046FEF7F1FC4FF440608DF82D
:101A60000650ADF804004FF4005000902046FEF7F9
:101A7000E5FC00F065F9BCBD1CB5044600200190F2
:101A8000FFF768FA4FF48030FFF7DCFAFFF718FB36
:101A900001900198012823D11020FEF7FFFC0220BD
:101AA000FEF706FD0020FFF7C5FA4FF48060FFF750
:101AB000DFFA0020FFF7E4FA4FF480302146FFF709
:101AC000EDFA0120FFF7E4FA3920FFF79BFA00282E
:101AD000FAD00220FFF7EAFAFFF7A6FA0828FBD1AE
:101AE0001CBD000080B50AA000F062FCFFF710FFEB
:101AF0000D4890210722FFF705F90C489021072295
:101B0000FEF73AFE0AA0BDE8804000F0D1BA00BF5F
:101B10000A2D2D3E4932435FBAAFCAFDD0B4C8EB9F
:101B2000BFAACABC200000000C0000203600002024
:101B30002D2D2D3E4932435FBAAFCAFDD0B4C8EB5C
:101B4000CDEAB1CF0A0D000080B50AA000F030FC4C
:101B5000FEF748FF0E4890210722FFF71FF80D48B7
:101B600090210722FEF748FF0BA0BDE8804000F05F
:101B70009FBA00BF0A2D2D3E4932435FC8EDBCFE1F
:101B8000BAAFCAFDD0B4C8EBBFAACABC20000000DF
:101B900014000020360000200A2D2D2D3E4932432E
:101BA0005FC8EDBCFEBAAFCAFDD0B4C8EBCDEAB198
:101BB000CF0A0D001CB5044608460121ADF80420EB
:101BC0008DF80730FFF7BAF901A92046FEF78EFC21
:101BD0001CBD000010B5F14C042101220423204655
:101BE000FFF7E8FF04F5006010214FF400520423D2
:101BF000BDE81040FFF7DEBFB0B54F4C064D2021C9
:101C00002046A84720460121A847204602212A460F
:101C1000BDE8B040104700BFB9050008B0B50C469C
:101C20000546032A05D0022A08D0012A18BFB0BDF4
:101C30000AE028462146FEF7B8FC28B1284621468E
:101C4000BDE8B040FEF7B6BC28462146BDE8B0402E
:101C5000FEF7B2BC2DE9F04115A000F0A9FB364C0F
:101C6000184E194FDFF864800225280408BFBDE82C
:101C7000F081B04720462021B8474FF4FA70022186
:101C8000C047B04720460121B8474FF4FA700221FF
:101C9000C047B04720460221B8474FF4FA700221EE
:101CA000C047B04720462021B847013DDDE700BFCF
:101CB0000A202D2D2D3E204C4544BFAACABCD4CBB2
:101CC000D0D02000F91B0008B5050008991E0008B7
:101CD000BCB5054601201446ADF804208DF8073048
:101CE0008DF8060008460121FFF728F901A92846CA
:101CF000FEF7FCFB28462146FEF75EFCBCBD00005B
:101D0000B0B5EA4C0D4D0821202210232046A847EB
:101D10002046082120221023A8472046082101221E
:101D20001023A8472046082102221023A847BDE817
:101D3000B040FFF761BF00BF000C0140D11C00089C
:101D40001CB54FF4C060FFF7D5F8064801AC019010
:101D50002046FFF7A7F828208DF804002046FFF75B
:101D6000A1F81CBD060101014FF4E010FFF784BE8D
:101D700070B5274E20A0B047FFF71CFAFFF7E2FA34
:101D800000200025FFF7FEF922A0B047264C0021D5
:101D90004FF480522046FFF7B3FA20464FF48051AB
:101DA000FFF7EAFA21A0B0472548A721B5F5805FE3
:101DB00002D041550135F9E7214C4FF480512046BE
:101DC000FFF7DAFA204600214FF48052FFF78EF930
:101DD0001CA000F0EDFA144C00214FF48052204674
:101DE000FFF78EFA20464FF48051FFF7C5FA1AA08C
:101DF000BDE8704000F0DCBA2D2D3E535049CDA80F
:101E0000D0C5D6B8B2E2CAD4BFAACABC200000006E
:101E1000B12300080A0A2D2D3E535049C7E5BFD50E
:101E2000BFAACABC200000003D0000200A0A2D2DD8
:101E30003E535049C7E5BFD5CDEAB3C920000000E5
:101E4000901000200A0A2D2D3E535049CAE4C8EBD9
:101E5000CDEAB3C9200000002D2D3E535049CDA836
:101E6000D0C5D6B8B2E2CAD4CDEAB1CF20000000C6
:101E70000748D0E90012531C8A42436006D900216A
:101E800041600448017841F001010170704700BFD2
:101E90002400002020000020B0B51A4A1A4B012966
:101EA0000ED11A491A4D0C68B4FBF5F4013C54608C
:101EB000F0241C7000249460072414600C6808E06F
:101EC000124C0229246804D14FF47A71B4FBF1F466
:101ED00003E00021B1EB146F07D1611E5160F021C6
:101EE000197000219160072111600021814204D006
:101EF0001368DB03FCD50131F8E7106820F001001E
:101F00001060B0BD10E000E023ED00E0080000200C
:101F100040420F0010B586B04FF480400121FFF71A
:101F20000DF800204C4C01A9ADF8100002904FF4C0
:101F3000E13001904FF4402003902046FFF78AFBE8
:101F40004FF4A060FEF7D6FF0848059005A8FEF7FD
:101F5000A9FF204640F225510122FFF765FB2046EC
:101F60000121FFF72FFB06B010BD00BF25010101C5
:101F7000BCB504200121FEF7E1FF0748074C01AD85
:101F8000294601902046FEF7B1FA054829460190FE
:101F90002046FEF7ABFABCBD000203180008014062
:101FA0000004030480B5FFF7E3FFBDE88040FFF7BE
:101FB000B1BFB0B50D46044615F8010BC1B22046BD
:101FC00000F00BF815F8010B0028F7D1204640214E
:101FD000FFF709FB0028F9D1B0BD10B50446FFF7A3
:101FE0008DFB20468021FFF7FEFA0028F9D010BDB6
:101FF00010B5074C0D212046FFF7EFFF05A000F0BC
:10200000D7F90AA12046BDE81040FFF7D2BF00BFB4
:10201000003801402D2D3EB4AEBFDACDA8D0C5D6D4
:10202000B8B2E2CAD4CDEAB1CF200000203A20777E
:10203000616E677169200A00B0B5074D0446C1B2F0
:102040002846FFF75BFB28468021FFF7CCFA0028E3
:10205000F9D02046B0BD00BF00380140FFF784FE34
:10206000FFF74EFEFFF7B6FDFFF79CFFFFF7F2FD0F
:10207000FFF7BEFFFFF7DCFCFFF7ACFCFFF732FD1C
:10208000FFF762FDFFF774FE084CFFF7B5FD4FF454
:10209000FA700221FFF700FF20460121FEF78AFABD
:1020A0004FF4FA700221FFF7F7FEEEE7000C014053
:1020B0000FB4054B10B503A9044A029800F018F8B4
:1020C00010BC5DF814FB000039200008000000205F
:1020D00002E008C8121F08C1002AFAD170477047F1
:1020E000002001E001C1121F002AFBD1704700004F
:1020F0002DE9FF4F8DB09B460F460446002606E0B3
:1021000025280BD05A460F999047641C761C2078DE
:102110000028F5D111B03046BDE8F08F0025A84663
:102120000122984900E0054314F8013F203B02FAE0
:1021300003F00842F7D120782E2817D114F8010FA8
:1021400045F004052A280ED06FF02F022078A0F168
:10215000300109290AD808EB880102EB410100EBA4
:102160000108641CF2E757F8048B641C20786C2883
:102170000DD004DC4C2812D06A2811D104E0742858
:102180000DD07A280CD10AE045F4001507E06178FB
:1021900045F48015814202D1641C05F58015641C4C
:1021A0002278692A45D008DC002AB3D0582A69D0A1
:1021B000632A10D0642A08D13BE0702A67D0732AC2
:1021C00013D0752A5CD0782A5CD010465A460F99F5
:1021D0009047761CD3E017F8040B8DF80000002020
:1021E0008DF80100E946012003E057F8049B4FF009
:1021F000FF3069074FF0000501D40AE06D1C45452A
:102200000DDA8542FADB19F805100029F6D106E04F
:102210006D1C8542FCDB19F805100029F8D12E440D
:1022200004E019F8010B5A460F9990476D1EF8D239
:10223000A5E00A200021CDE90801C5F302500228DB
:102240000DD001CFC117031E71F100030DDA4FF05D
:10225000000CD0EB0C006CEB01012D2308E0FF1DFE
:1022600027F00707F7E80201EDE72B0504D52B233C
:102270008DF8283001233BE0EB0739D02023F7E726
:102280000A2000E010200021CDE9080107E010201D
:10229000002145F00405CDE908014FF00808C5F319
:1022A000025002280FD001CF00214FF0000A2B0767
:1022B0001FD5702A0DD0DDE908C38CF0100C5CEA44
:1022C000030C0CD015E0FF1D27F00707F7E802010B
:1022D000EBE740228DF828204FF0010A0BE050EA8E
:1022E000010306D030238DF828308DF829200223F1
:1022F0009A46582A04D024A20DF120090B9209E035
:1023000026A2F9E7DDE90823FDF72EFF0B9B9B5C76
:1023100009F8013D50EA0102F4D1ADEB090020308B
:102320000890680701D44FF001080899884502DD3C
:10233000A8EB010000E000208046002506E00AA886
:102340005A46405D0F9990476D1C761C5545F6DB4B
:1023500004E030205A460F999047761CB8F10001EE
:10236000A8F10108F5DC05E019F8010B5A460F99B0
:102370009047761C0899481E08900029F4DC641CDC
:10238000C5E60000092801003031323334353637D4
:1023900038396162636465660000000030313233B1
:1023A0003435363738394142434445460000000051
:1023B00010B5044601E0FFF73FFE14F8010B044995
:1023C0000028F8D1BDE810400A20FFF735BE000014
:1023D00000000020020406080000000001020304BF
:1023E0000102030406070809570000004500000029
:1023F0004C0000004C000000430000004F000000B3
:102400004D000000450000002000000053000000C7
:10241000540000004D0000003300000032000000B6
:102420002000000053000000540000005500000090
:1024300044000000590000000A0D00C3BBD3D0BC0B
:10244000ECB2E2B5BDB4AED0D0454550524F4D21AF
:102450000D002025642000007824000800000020E2
:1024600020000000D0200008982400082000002050
:1024700070240000E02000080000000000C00300FD
:1024800000A24A040405060708090A0B18191A1BBA
:082490001C1D1E1F00000000CE
:0400000508000131BD
:00000001FF
